:020000040800F2
:10000000C04A0020BD0200089DEA00080D950008C6
:10001000E5E80008C12B0008056E0108000000009B
:10002000000000000000000000000000712E010828
:10003000D53100080000000087F50008455F010881
:10004000D7020008D7020008D7020008D70200082C
:10005000D7020008D70200088D420008CB420008F2
:10006000D5420008DF420008E9420008D702000834
:10007000D7020008D7020008D7020008D7020008FC
:10008000D7020008D7020008D7020008D7020008EC
:10009000D7020008D7020008D7020008F342000880
:1000A00000000000D7020008D7020008D7020008AD
:1000B000D7020008D7020008D7020008D7020008BC
:1000C000D7020008D7020008D7020008D7020008AC
:1000D000D7020008D7020008E1690108D70200082A
:1000E00097420008D90B0108D7020008D702000880
:1000F000D702000800000000D7020008D70200085D
:100100000000000000000000D7020008D70200082D
:10011000D7020008D7020008D7020008000000003C
:10012000D702000800F002F800F0B8F80AA090E842
:10013000000C82448344AAF10107DA4501D100F0A2
:10014000ADF8AFF2090EBAE80F0013F0010F18BFB7
:10015000FB1A43F001031847D8900100F890010002
:100160000A444FF0000C10F8013B13F0070408BFDD
:1001700010F8014B1D1108BF10F8015B641E05D07B
:1001800010F8016B641E01F8016BF9D113F0080F30
:100190001EBF10F8014BAD1C0C1B09D16D1E58BFC2
:1001A00001F801CBFAD505E014F8016B01F8016BF9
:1001B0006D1EF9D59142D6D370470000002300246C
:1001C00000250026103A28BF78C1FBD8520728BF67
:1001D00030C148BF0B6070476E2900F0CF83702993
:1001E00000F0F581662918F05481652918F05181D5
:1001F000672918F04E81612918F04D8103681B0AA8
:1002000028BF41F08001692900F06681642900F06F
:100210006381752900F060816F2900F0CE84782910
:1002200000F0C181E92900F06984E42900F06684C6
:10023000F52900F06384EF2900F0CB84F82900F061
:10024000C0810368DB0928BF41F08001632900F009
:10025000D883732900F0DD83E32901F0A180F3291D
:1002600001F0A680002070471FB59DE8030001F053
:100270005FFB01F08FF904000020002117F032FC31
:10028000401C60600020002117F016FCE06001F0C7
:1002900097F81FBD10B501F0FCF810BD01F04CF946
:1002A0001146FFF7E1FF17F0C3F901F011FB03B4AA
:1002B000FFF7F0FF03BC01F0ADFC000009488047E8
:1002C00009480047FEE7FEE7FEE7FEE7FEE7FEE738
:1002D000FEE7FEE7FEE7FEE704480549054A064B50
:1002E000704700004562010825010008C02A00206F
:1002F000C04A0020C03A0020C03A002053EA020C55
:1003000000F069802DE9F04B4FF00006002B1FBF75
:10031000B3FA83F503FA05F424FA05F65E4012BF3A
:100320001643B2FA82F502FA05F4C5F120051EBFA4
:1003300022FA05FC44EA0C04203556EA044C4FEA44
:10034000144418BF641C4FF000084FF0000990429D
:1003500071EB030C39D3002919BFB1FA81F701FA07
:1003600007F6B0FA80F700FA07F6C7F120071EBFBC
:1003700020FA07FC46EA0C062037B6FBF4FCA7EB94
:100380000507103F07F01F0BCBF120060CFA0BFB03
:100390002CFA06F644BFB3460026202FA4BF5E46C3
:1003A0004FF0000B5BEA060C08BF4FF0010B19EB96
:1003B0000B09ABFB027C48EB0608C01B06FB02CC1A
:1003C0000BFB03CC71EB0C01C1E70B460246414627
:1003D0004846BDE8F08B13B54FF000004FF0000128
:1003E000AFF30080BDE81C40704700007CB51D469F
:1003F00016460C00009001D02044401E074B7B4461
:100400002A4669460190304600F0D1FA05461CB1F3
:100410000020694600F0DEFA28467CBDDD050000BC
:100420000FB4044910B503AA029800F0F7FA10BC03
:100430005DF814FBB429002070B504468569006896
:10044000C10601D5302600E02026C00707D070BDC8
:10045000D4E9012130469047206A401C20626D1E7D
:10046000F6D570BD70B5044685690078C00707D120
:1004700070BDD4E9012120209047206A401C2062F1
:100480006D1EF6D570BD70B50C460546012A05D027
:100490002878800600D5EA69002302E0012305E000
:1004A0005B1C934202D2E05C0028F9D1A869E618EF
:1004B000C01AA861286A184428622846FFF7BCFFC2
:1004C00004E0D5E9012114F8010B9047B442F8D3B8
:1004D0002846FFF7C7FF70BD2DE9F041064600240E
:1004E00010687529314616A510D000F0DCF90028F7
:1004F00002DA404213A507E031688A0701D512A548
:1005000002E0490704D511A5012401E000F0D4F967
:1005100000210A2206F1240709E0B0FBF2FCB0FB3F
:10052000F2F302FB1C00303078541846491C0028B6
:10053000F3D123462A463046BDE8F04100F0C5B964
:10054000000000002D0000002B0000002000000033
:10055000F0B40D460188090502D5214C7C4402E027
:100560001F4C7C440E34002100F1240608E002F008
:100570000F071209E75D42EA03721B097754491C11
:1005800052EA0307F3D102780023120704D5702D35
:1005900006D009B1022311342246F0BC00F095B90F
:1005A00001231034F8E770B504460D462146106863
:1005B00000F082F9024629462046BDE8704000233B
:1005C000C6E7D21D22F00703D3E90023C0E7036882
:1005D000126843F0200303600823C3610023B7E7D8
:1005E000CF8801002DE9F05F894604464FF0000AEC
:1005F000DFF874B1FB44C0F820A02046E1688847CA
:10060000002874D0252806D0D4E901219047206A1B
:10061000401C2062F1E700265F462046E1688847DB
:100620002028054607DB312D05D2781910F8200C5B
:1006300008B10643F1E7B00701D526F00406C4F877
:100640001CA00027C4F818A02A2D09D0284616F0AF
:10065000BDFC38B304EB8708303DC8F8185019E0EA
:1006600059F8041B204604EB87029161E168884732
:10067000012F054618D1E069002820DA26F020066F
:100680001DE0D8F8180000EB800005EB4000303882
:10069000C8F818002046E1688847054616F096FC21
:1006A0000028EED1012F0AD02E2D08D12046E16876
:1006B00088477F1C0546022F46F02006C4DBA06950
:1006C000002803DA404246F00106A061F00701D09D
:1006D00026F010066C2D0BD0682D09D04C2D39D08A
:1006E0006A2D35D0742D35D07A2D33D016E038E010
:1006F000E1682F4620468847B842054609D16C2F4D
:1007000026D04FF48060E1680643204688470546BE
:1007100004E06C2F1AD04FF4807006430DB3A5F19E
:100720004100192802D8203546F400664A46294679
:10073000204626604E46FFF74FFD80B101280BD0C2
:10074000F61D26F0070000F1080956E74020E4E70F
:100750008020D8E70020D6E706F104094DE72846B7
:1007600052E7206ABDE8F09F5F88010010B5203A8B
:10077000C0F00B80B1E81850203AA0E81850B1E85A
:100780001850A0E81850BFF4F5AF5FEA027C24BF10
:10079000B1E81850A0E8185044BF18C918C0BDE807
:1007A00010405FEA827C24BF51F8043B40F8043BD0
:1007B00008BF7047D20728BF31F8023B48BF11F885
:1007C000012B28BF20F8023B48BF00F8012B7047DF
:1007D0004FF0000200B5134694469646203922BFDA
:1007E000A0E80C50A0E80C50B1F12001BFF4F7AF25
:1007F000090728BFA0E80C5048BF0CC05DF804EB07
:10080000890028BF40F8042B08BF704748BF20F874
:10081000022B11F0804F18BF00F8012B7047000029
:100820004FF0013C50F8042B51F8043B9A4221D17F
:10083000A2EB0C03934313EACC1317D150F8042B0B
:1008400051F8043B9A4215D1A2EB0C03934313EAEF
:10085000CC130BD150F8042B51F8043B9A4209D128
:10086000A2EB0C03934313EACC13DBD04FF0000050
:10087000704700BFD01A01BAB1FA81F101F0180136
:1008800022FA01F0CB40C1F12001DBB2C0B2C01AA4
:100890002CFA01F3D11A914311EAC311E6D1704742
:1008A00070477047704709684A0501D540B27047E4
:1008B000C905FCD500B2704709684A0501D5C0B228
:1008C0007047C905FCD580B270472DE9F0470D4649
:1008D00099469246044600F124080168880604D52A
:1008E000E06921F01001216000E00120A84201DD53
:1008F000471B00E00027A1697A1902EB0900081ADA
:10090000A0612078C00602D42046FFF795FD00269E
:1009100008E0D4E901211AF806009047206A401C3B
:10092000761C20624E45F4DB2078C0060AD52046AE
:10093000FFF782FD06E0D4E9012130209047206ACC
:10094000401C2062381EA7F10107F4DC07E0D4E95F
:10095000012118F805009047206A401C2062281EDB
:10096000A5F10105F3DC2046FFF77CFD20780006A9
:1009700002D50220BDE8F0870120FBE7116802687C
:10098000006A530501D508700AE0D30501D5088037
:1009900006E0130603D5C217C1E9000200E00860B3
:1009A0000120704701694A1C02610878704700B550
:1009B0008FB0CDE901310021059105497944CDE998
:1009C000031011466846FFF70DFE0FB000BD000092
:1009D000E5FFFFFF0A6802F8010B0A607047D1E9E2
:1009E00000239A4202D2531C0B601070704710B55E
:1009F000436913B1AFF3008001E0FFF744FD01202C
:100A000010BD127800F124010A7000224A70012200
:100A1000EDE711684FF0FF32E9E70000074B70B5D2
:100A20000D467B44FFF7C3FF0446284600F0C4FC94
:100A300010B14FF0FF3070BD204670BDB76A0100A5
:100A40002DE9FF5F15468A460446DFF8AC80F8447E
:100A50000027D8E900103E46CDE9001010E03AF832
:100A600016106A4602A800F047FD411C07D0217805
:100A7000890603D5E269391891420DD80744761CDE
:100A80002078800602D5E069B84205DDAE42E6DB9B
:100A90003AF816000028E2D1A069C01BA0612046E8
:100AA000FFF7CAFCD8E90010CDE90010002017E0DC
:100AB0003AF818106A4602A800F01EFDB0F1FF3F98
:100AC00081460BD000250DF1080B05E0D4E901218A
:100AD0001BF8050090476D1C4D45F7D308F1010048
:100AE000B0428046E4DB206A384420622046FFF7AB
:100AF000B9FCBDE8FF9F0000168401002DE9F0411C
:100B00008046D21D22F007020025D2E90002F52915
:100B100015A614D0011E72F1000106DA0023D0EBF5
:100B2000030063EB020211A608E0D8F800108B075F
:100B300001D50FA602E0490701D50EA601251146F1
:100B4000002408F1240704E000F04EF830323A5552
:100B5000641C50EA0102F7D12B463246214640463A
:100B6000BDE8F041FFF7B1BE000000002D0000001D
:100B70002B0000002000000030B4002100F124040C
:100B800008E002F00705D208303542EA4372DB087C
:100B90006554491C52EA0305F3D10468002310A2EE
:100BA000250707D5A40600D421B1C46901230DA2ED
:100BB000641EC46130BCFFF788BE10B504462146F0
:100BC0001068FFF779FE02462046BDE8104000237A
:100BD000D2E7D21D22F00701D1E90023CCE70000C3
:100BE000000000003000000030B5B0F10A024FEA0A
:100BF000900E71F100034EEA817EB0EB0E0061EBC6
:100C000091014FEA101E4EEA017E10EB0E0041EBFF
:100C100011114FEA102E4EEA016E10EB0E0041EB5F
:100C200011214FEA104E4EEA014E10EB0E0041EB3F
:100C30001141401841F100014FEAD00040EA4170F3
:100C40004FEAD10110EB80054FEA810444EA907429
:100C500044EB01046D1944EB0404521BA3414FF013
:100C6000000348BF0A3200D530BD401C41F10001ED
:100C700030BD70472DE9FF4F0C461E464FF0FF3741
:100C80008BB0D2E90001DDF860800A908A46C1F39A
:100C90000A5505B93D46002108464FF00000BAF15B
:100CA000000F00F4400005DA00EB80004FF4400133
:100CB00001EA50004FEA9059B9F1010F00DDB94641
:100CC0000A9850EA4A000ED044F61050A5F2FF35BB
:100CD00045432F14B8F1000F1ED07542291E1EDDAA
:100CE000C9F100021CE0B8F1010F4FF0000001D083
:100CF000302103E0F24305E02154401CB042FBDB0D
:100D000030460022002121540B99C1F80880C1E926
:100D100000200FB0BDE8F08FBD1B6D1CDEE74A461A
:100D200000DA694206A800F0A1FC06AB93E80700D0
:100D300003AB83E8070050460A9901F007F88DE8F5
:100D40000700A0F500501F3800900398002D0ADD21
:100D500042F21F014A460844002303A90390684653
:100D600001F070FA09E0A0F500504A461F38002350
:100D700003A90390684601F07AFA8DE807000004A1
:100D8000000C03D04FF0FF30410800E01046B8F1EE
:100D9000000F03D00022009215461EE0751E05D4F8
:100DA000FFF722FF303262556D1EF9D5B34601229E
:100DB000084302D000227F1C04E02078302801D1B3
:100DC00000227F1E002A099784D01DE0112D07DA2A
:100DD000FFF70AFF303262556D1C50EA0102F5D16F
:100DE000084302D00098C8B10EE00021681E05E05B
:100DF000235C625C63542254401E491C8142F7DB31
:100E0000AB46A81B401E0990002004F80B000B986D
:100E1000099AC0F80880C0E9002B7AE711264FF044
:100E2000000857E72DE9F04F88460446D21D22F00E
:100E3000070191B0D1E90001CDE90A0116F096F859
:100E400002460B98C00F01D02D2007E020688107D3
:100E500001D52B2002E0202101EAC000032A0990DD
:100E600001D0072A05DB03464146204600F0BEFBC1
:100E70000BE12078800601D5E06900E00620B8F19A
:100E8000650F814606D0B8F1660F18D0B8F1670F2C
:100E900070D131E00020B9F1110F009001DB112376
:100EA00001E009F101030AAA01A90CA8FFF7E2FE7B
:100EB000DDE90C70002609F10105834647E00120B9
:100EC0004B4600904FF000470AAA01A90CA8FFF773
:100ED000D1FEDDE90DB00C995D46002610B909F18F
:100EE00001000D18B9EB050003D4C0F1FF3609F17C
:100EF0000105A5EB09002BE0B9F1010F01DA4FF074
:100F000001090020B9F1110F0090484601DD1123BD
:100F100000E003460AAA01A90CA8FFF7ABFEDDE931
:100F20000C704D4600268346207800070AD4AB4556
:100F300000DA5D4601A8012D04DD411911F8011CFC
:100F4000302907D04F4502DA17F1040F04DA0120E7
:100F500082460FE06D1EEEE7002F02DCED1B3E44E3
:100F600003E0781CA84200DD7D1CB81B00F1010ADB
:100F70004FF000472078000703D4AA4501DB4FF06B
:100F8000FF3A0021B7F1004F0DF143088DF84310EF
:100F900024D002202B23002F01DA7F422D230A21A7
:100FA000021EA0F1010000DC5FB197FBF1FC97FB92
:100FB000F1F201FB1C7C17460CF1300C08F801CD56
:100FC000EEE7A8F1010003702188090501D545214C
:100FD00000E06521A0F1010800F8011C09980FA9A3
:100FE000A1EB0807FF1D00B10120411901EBEA70D8
:100FF000A1693844081A401EA0612078C00602D4B6
:101000002046FFF719FA099828B1D4E90121904741
:10101000206A401C20622078C00622D52046FFF7B7
:101020000BFA1EE0002E04DBB34502DD01A8805D53
:1010300000E03020D4E901219047206A401C206262
:10104000761CAAF101005FEA000A0AD100F0A2FAB8
:10105000C0680168405CD4E901219047206A401CC7
:101060002062281EA5F10105DCDC07E0D4E901219E
:1010700018F8010B9047206A401C2062381EA7F127
:101080000107F3DC2046FFF7EDF9032011B041E63C
:101090002DE9F04F04460D46D21D22F0070089B01D
:1010A000D0E900974846394615F060FF0246F80F30
:1010B00001D02D2307E02068810701D52B2302E012
:1010C000202101EAC0038DF820300BB1012000E09F
:1010D0000020032A824601D0072A04DB2946204645
:1010E00000F084FA3FE12078800601D40D2500E06D
:1010F000E569C7F30A560D2D49DA00214FEA175B5F
:1011000008464FF00000002F00F4400007DA00EB23
:1011100080004FF4400100EBD07001EA60008115BF
:10112000012901DD4FF0FF3100224FEA850CBCF1AF
:10113000180F06D31346ACF118004FF08052C2408E
:1011400003E04FF4801323FA0CF30CF10C0CBCF108
:10115000200F04D3ACF1200C09FA0CF001E007FADF
:101160000CF000294FF0004801DD18B90FE00ED156
:1011700040450CD319EB02095F4121B9404502D12A
:101180009F4329EA0209BBEB175F00D0761C208839
:10119000000502D57B48784402E07A487844193843
:1011A00008AA302302F80A30037C0AF10101002E5C
:1011B0000AF1020A53546A4602DC4FF0300101E0A2
:1011C0004FF031014FF001088DF8001002D0A6F267
:1011D000FF3603E059EA470100D06B4E002D02DCD8
:1011E0002178090704D54FF002082E218DF801104F
:1011F000C44600210BE0C7F303433F01C35C491C15
:101200006D1E02F80830052908F1010801DA002DE9
:10121000F1DC00210CE000EB1973491C1B786D1EFA
:10122000082902F808304FEA091908F1010801DA23
:10123000002DF0DC21688B0602D516E0A8F101082C
:10124000E04505DD02EB080313F8013C302BF5D037
:10125000B8F1000F09DD02EB080313F8013C2E2B57
:1012600003D1090701D4A8F10108002D05DD3E21B5
:1012700002F808106D1E08F10108407C002E02F8EB
:10128000080008F1010804DA2D20764202F808006F
:1012900002E02B2002F808000A214FF47A708642FF
:1012A00008F101080BDB96FBF0F3303302F808304D
:1012B00096FBF0F308F1010800FB136601E0642ED1
:1012C0000CDB642096FBF0F3303302F8083096FB19
:1012D000F0F308F1010800FB136601E00A2E06DBBB
:1012E00096FBF1F0303002F8080008F1010896FB97
:1012F000F1F001FB1060303002F80800A16908F13C
:10130000010808EB050202EB0A00081AA061207828
:10131000C00602D42046FFF78FF8216A08AE01EB21
:101320000A00206204E0D4E9012116F8010B90477D
:10133000BAF1010AF7D22078C00602D52046FFF79D
:101340007BF86E4609E016F8010B3E280FD0D4E971
:1013500001219047206A401C2062B8F10108F2D2B6
:101360002046FFF77FF809B00320BDE8F08F206A20
:101370002844206203E0D4E90121302090476D1E0B
:10138000EBD3F8E7E97C010002FCFFFF10B54369ED
:1013900013B1AFF3008001E0FFF752FB012010BD55
:1013A000128800F1240182840022C2840122EDE728
:1013B00011684FF0FF32E9E7007B00F080007047D2
:1013C00010B542485421FFF703FA41485421FFF772
:1013D000FFF940485421FFF7FBF93F493B483C4A9D
:1013E0003F4B08603D490A603A491960531C036548
:1013F000481C1065012008653B48344A39A17844EF
:1014000000F0CAF920B9384878440A3800F069FA7F
:1014100037482F4A35A1784400F0BEF920B9344846
:1014200078440A3800F05DFA32482A4A2FA17844FD
:1014300000F0B2F920B92F4878440A3800F051FA88
:1014400040232248DC000021224600F081F920B12F
:1014500025487844543800F044FA1D482246402379
:10146000002100F075F920B121487844543800F08B
:1014700038FA184822461023002100F069F90028A4
:1014800006D01C487844BDE81040563800F029BA10
:1014900010BD104870B5006D20F001040B4800F03D
:1014A000F1F90B4800F0EEF90A4800F0EBF909E019
:1014B000206D20F00105204600F0E4F9204600F000
:1014C0006DF82C46002CF3D170BD0000602900207F
:1014D000B4290020082A0020300400203404002011
:1014E0003804002072000000167A01007700000026
:1014F000057A0100F579010070B516460C460546DF
:1015000000F040F8036893F80101012806D0FF2C91
:101510000FD8185D68B101202C7070BDD3F8070199
:101520003246214603F2071303442846BDE87040C3
:1015300018474FF0FF3070BD754600F0D9F9AE4640
:1015400005006946534620F00700854618B020B5CF
:10155000FEF7C2FEBDE820404FF000064FF0000746
:101560004FF000084FF0000B21F00701AC46ACE84B
:10157000C009ACE8C009ACE8C009ACE8C0098D46B8
:101580007047000010B500F005F8001D10BD00BF49
:1015900055650100004870477C2A002070B504465C
:1015A000051F00F0A9F90068002C14BF446870BD45
:1015B000002C18BFAC423CBF20466468F8D30168D9
:1015C0000A18AA4218BF456003D12A68054611448B
:1015D000016028684119A1421CBF6C6070BD616840
:1015E000696021680844286070BD00002DE9F04161
:1015F0001F46044603260168072A01F4006004DB45
:1016000008B116A505E016A503E008B115A500E090
:1016100015A521F010002060A069C01EA0610FB1C7
:10162000401EA0612046FEF707FF4FB1D4E901211B
:1016300038469047206A401C2062C01C206206E0A9
:10164000206AFAE7D4E9012115F8010B9047761ECC
:10165000F8D22046FEF706FFBDE8F0814E414E006D
:101660006E616E00494E4600696E66002DE9F047D6
:10167000814616468AB0354878440DC88DE80D007D
:1016800032487844801C03AC0DC884E80D0041F654
:101690009B300844372190FBF1F290FBF1F5A5F166
:1016A000800501FB12041B3C02D56442012000E0CE
:1016B0000020DFF898A080460027FA44AAF1BE0A6D
:1016C0000EE0E0070AD03246684607EB47010123E7
:1016D0000AEB810100F0CBFD8DE8070064107F1C50
:1016E000002CEED1194F7F44AE3F19E0E80715D02A
:1016F00007EB04100DF1180A90E80E008AE80E00BE
:10170000C068F04201D1981908903246012306A919
:1017100003A800F0ACFD03AB83E807006D10641C68
:10172000002DE3D14FF0010332466946B8F1000FB6
:1017300003A802D000F086FD01E000F098FDC9E9A1
:101740000001C9F808200AB0BDE8F08798780100C8
:1017500070B5C468A50713D0650211D4B2F5807FB7
:1017600009D0B2F5007F06D0B2F5806F08D1012311
:1017700000F1240106E05D1E6FF07F46B54201D303
:10178000012070BD0161C361416024F470611143A7
:10179000C160002070BD00002DE9F0410C460746F5
:1017A0001646104600F06EF82078611C61280AD0B9
:1017B000722802D077283CD102E00125002405E000
:1017C0000225042402E0082448F2020511F8010B66
:1017D0002B2806D0622809D011F8010C74280AD0F1
:1017E0000BE045F0030544F00204EFE745F0040583
:1017F00044F00104EAE744F010043846214615F0AD
:1018000023FC411C15D00021316171604FF400713F
:10181000F560F1617061200704D530460222002195
:1018200000F0E4F8306D40F0010030653046BDE86E
:10183000F0810020FBE72DE9F0410D460646104CF3
:10184000206DC10704D0410804D020F00104F7E75F
:1018500022460EE0542000F09AF807000ED0206DCA
:1018600047F001010843542120653846FEF7B0FFD8
:101870003A4629463046BDE8F0418DE70020D6E7DC
:10188000602900202DE9F04704464FF000094FF091
:10189000FF37C568D4E90486A80707D0204600F0C2
:1018A00055F9304615F099FB002802DA3846BDE8B4
:1018B000F087280502D54046FFF770FE4C212046F0
:1018C000FEF786FF206D20F0010020654846EEE718
:1018D00010B50446AFF300802046BDE81040FEF787
:1018E000E6BC10B500F07CF9BDE8104000F072B91C
:1018F000004870475C2A002000487047642A002096
:10190000704770477047704738B504460A46002054
:101910006946AFF30080002808BF38BD0246009931
:10192000204600F084F9012038BD012000F0D3B931
:10193000F8B5AFF30080054600200C46102000BF2C
:101940000646A819A0420DD9324669460020AFF3D9
:101950000080070008BF00F0BEF90098A04218BF41
:101960000546C419FFF7C8FF05600746F01D20F0C3
:1019700007004619284600F053F9B44208BFF8BDE5
:10198000A21B31463868BDE8F84000F050B970B588
:101990000646FFF7B1FF056806F10B0020F00704CB
:1019A000B4429CBF002070BD2B466A68BAB1106873
:1019B000A04210D304F1080188423CBF506858602F
:1019C00007D35168101941601168091B0160586004
:1019D0001460101D70BD13465268002AE7D12146DD
:1019E0002846FFF791FF0028DED170BD2DE9F041B8
:1019F000044616460D464769007B80072ED03846C0
:101A000015F010FB50BB3EB3012E02D0022E25D1A3
:101A100004E0204600F025F905441DE0384615F0A5
:101A2000EFFAE168002841F01001E16005DA204694
:101A300000F058F80120BDE8F081C9030BD56268B9
:101A4000E16A914200D81146A26911442269891ABB
:101A5000814200DD08460544002D01DA0220EAE754
:101A6000E16A6068E268814206D29103E06203D5D0
:101A700022F4003141F01002A6690027AE4213DCC7
:101A8000E16A814201D90B4600E0034603EB060CF4
:101A90002369ACEB030CAC4506DD814201D98C46D1
:101AA00000E084469C4505D1A760276042F02000F5
:101AB000A5620DE0AD1BE669AE1B8142A66000D9B0
:101AC0000846C01A281A20605819606022F02000C9
:101AD00003490840E060002084F84870ABE700004C
:101AE000BFCFD7FFC16821F4001141F08001C16070
:101AF00000218160016070472DE9F047814614465E
:101B00000E464FF0FF383248D5685769054209D074
:101B10003846A16915F0CCFA002811DB2C48C043E7
:101B20000540E5602B4632464946384615F0D6FA60
:101B3000A16920F00042B21A11440028A16103D02B
:101B40002046FFF7CFFF4046BDE8F08770B504465A
:101B50000569C06A6168884200D80846E16821F4D6
:101B60002011E160C90312D5A84208D02246411BCA
:101B70002846FFF7C1FF10B14FF0FF3070BD0020C5
:101B8000E562C4E90150E06820F48030E0600020A4
:101B900070BD10B50446C06820F02000E060A16A66
:101BA000A06988420DD02046FFF7D0FFE06820F4FE
:101BB000405040F01000E060A06AA0612069E0623F
:101BC000606044F24001E0688843E06010BD0000BE
:101BD00010000200002801D000F01CB8704700007F
:101BE00010B5014602A000F05DF8012010BD000014
:101BF00053494752545245443A20526564697265CC
:101C000063743A2063616E2774206F70656E3A20AA
:101C10000000000001491820ABBEFEE726000200CC
:101C200000210160C0E90110704710207047034691
:101C300040688C46002818BF88423CBF0346406875
:101C4000F8D318681844884207D00CF1030020F03C
:101C50000700001D411A521A0146081D0A60FFF7CD
:101C60009DBC10B50146C268900703D0900607D509
:101C7000886A0AE000F03EF801210160881E10BD6C
:101C80008B69486818440B69C01A91F848301BB139
:101C900091F84910401A10BD1103FCD50028FADD57
:101CA000401E10BD70B505460C460A2000E06D1CB4
:101CB00000F018F835B128780028F8D102E0641C4B
:101CC00000F010F814B120780028F8D1BDE8704079
:101CD0000A2000F007B810B500F010F8BDE8104079
:101CE000FFF778BF08B569468DF800000320ABBE4A
:101CF00008BD7047004870475C2A002010B50128D5
:101D000005D0002103A0FFF7CDFF012010BD09A1E0
:101D1000F8E7000053494752544D454D3A204F755E
:101D200074206F662068656170206D656D6F7279D3
:101D3000000000003A2048656170206D656D6F728B
:101D40007920636F72727570746564005FEA400C8D
:101D500008BF91F0000F4FEA8C234FEAC12243EAFB
:101D600051514FEA1C5018BF00F5F0404FEA3000C7
:101D700018BF41F000415FEA6C5C00F02980BCF1C3
:101D8000FF3F08BF40F080407047130C06BF1204AD
:101D90004FF0100C4FF0000C130E04BF12020CF1A8
:101DA000080C130F04BF12010CF1040C930F04BFB5
:101DB00092000CF1020CD30F04BF52000CF1010C85
:101DC00011464FF00002A0F11F00A0EB0C0070477D
:101DD00011F0004F08BF704731F000413FF4D5AF1C
:101DE0000B0C06BF09044FF0100C4FF0000C0B0E4B
:101DF00004BF09020CF1080C0B0F04BF09010CF120
:101E0000040C8B0F04BF89000CF1020CCB0F04BF34
:101E100049000CF1010CCCF12003A0EB0C0022FADC
:101E200003F302FA0CF241EA030100F101007047EA
:101E300020F07F4C80EA030023F07F47ACEB0703E0
:101E400003F57C5300F0004003F1FF032DE98049C6
:101E50004FEA154B09B44FEA144325EA0B4E24EA26
:101E600003480FF2042606EB132749083E785FEA81
:101E7000320203FB0667C7F5000707FB06F64FEAC9
:101E800054374FEAD64606F1020607FB066CCCF142
:101E9000005C4FEA1C472CEA074C07FB06F40CFBDE
:101EA00006F504EB15464FEA961634BF00204FF0B6
:101EB00000404FEAD13706FB07FC4FEA1C4C0CFBF5
:101EC0000BF7D21B03FB0CF761EB07010CFB0EF7C2
:101ED000B0EB074072EB17420CFB08F734BFA2EBE4
:101EE0000742B2EB074261EB17414FEA0C444FEA5D
:101EF000910706FB07FC4FEA1C4C0CFB0BF7B0EB01
:101F0000C74072EB573203FB0CF734BFA2EBC7425A
:101F1000B2EBC74261EB57310CFB0EF7B0EBC700D9
:101F200072EB57720CFB08F734BFA2EBC702B2EB9F
:101F3000C70261EB5771039F4FEA816141EA921139
:101F400004EBCC044FEAD1374FEA826206FB07FC70
:101F500042EA90124FEA80604FEA1C4C0CFB0BF7F0
:101F6000D21B03FB0CF761EB07010CFB0EF7B0EB88
:101F7000074072EB17420CFB08F734BFA2EB074295
:101F8000B2EB074261EB17414FEA8C554FEA9107DC
:101F900004EB9C2406FB07FC4FEA1C4C0CFB0BF7E4
:101FA000B0EBC74072EB573203FB0CF734BFA2EB28
:101FB000C742B2EBC74261EB57310CFB0EF7B0EBF7
:101FC000C70072EB57720CFB08F734BFA2EBC702D5
:101FD000B2EBC70261EB577115EB4C254FEA8161FB
:101FE00041EA92114FEA82624FEAD13742EA9012F7
:101FF00006FB07FC44F100044FEA80604FEA1C4CEA
:102000000CFB0BF7D21B03FB0CF761EB07010CFB7E
:102010000EF7B0EB074072EB17420CFB08F734BF2A
:10202000A2EB0742B2EB074261EB174115EB1C151F
:102030004FEA813141EA92414FEA823242EA9042CC
:102040004FEA80304FEA0C7644F1000448EA03433B
:102050004EEA0B484FF0000EB2EB080C71EB030791
:1020600024BF624639464EEB0E0E4FF0000B0018AF
:10207000524149414BEB0B0BB2EB080C71EB0307E0
:102080007BF1000B24BF624639464EEB0E0E4FF03B
:10209000000B0018524149414BEB0B0BB2EB080C03
:1020A00071EB03077BF1000B24BF624639464EEB10
:1020B0000E0E51EA020718BF46F0010616EB0E7627
:1020C00055F1000254F1000103D5BDE88901BDE8D6
:1020D0000088BDE88901BDE80048B619524141EBCE
:1020E0000101A3F10103704780807F7E7D7C7B7AB4
:1020F0007978777676757473727171706F6E6E6DB4
:102100006C6C6B6A6A696868676666656464636359
:1021100062616160605F5F5E5E5D5D5C5C5B5B5ADF
:102120005A5959585857575656555555545453534C
:1021300052525251515050504F4F4F4E4E4D4D4DA7
:102140004C4C4C4B4B4B4A4A4A49494948484847F2
:102150004747474646464545454444444443434330
:102160004342424242414141002B9C4630D47700D9
:102170002BD01CB54FEA370703B44FF010004FF0D7
:102180001001BAF1000F06D0BCF1000FDCBF40F027
:10219000080040F008014FF000000FBCBDE81040FF
:1021A0000BF1010BBBF1010F08BF5FEA170722BF5C
:1021B00012F1010211F101014FF0004143F100035E
:1021C00000F0004043EA00007047F9D35708D0E719
:1021D00046EA064613F1400F4FEA16461FDD13F19B
:1021E000200FDFBF16430A46002120335B42BED0DA
:1021F000C3F1200746EA064602FA07F74FEA1646F9
:1022000046EA0706C3F1200722FA03F201FA07F7AC
:1022100021FA03F14FF0000342EA0702A7E746EA7A
:10222000020646EA06464FEA164646EA0106BCBFE3
:1022300046EA0646360C4FF000034FF000024FF01E
:10224000000194E72DE9804C9A46934670B491E8DA
:10225000380007C831EA400C48BF34EA430C03D5C4
:10226000FFF7E6FDFFF780FFF0BCBDE8008C2DE92D
:10227000804C9A46934670B491E8380007C810F035
:10228000804F08BF13F0804F03D100F005F8FFF72F
:102290006BFFF0BCBDE8008C20F07F4780EA0300B4
:1022A00023F07F4C07EB0C03A3F57C5300F00040B8
:1022B000A3F1FE0392F0000F00F0B38095F0000F41
:1022C00000F077802DE901494FEA11404FEA1446AA
:1022D00021EA004800FB06FC24EA064708FB06F654
:1022E00007FB08F800FB07F718EB06484CEB164C09
:1022F0004FEA124B18EB07484FEA15464CEB1740D4
:1023000022EA0B4E0BFB06FC25EA06470EFB06F6FF
:1023100007FB0EFE0BFB07F71EEB064E4CEB164CB5
:102320004FF000061EEB074E4CEB174B18EB0B085B
:1023300040F1000018EB0E0B58EB000840F10000D4
:102340008F1A4FF000013CBFC943661B14BFB5EBA9
:10235000040C00213CBFC943F61B4FEA17444EEA68
:102360008E0E27EA04454FEA1C4704FB07622CEA5D
:10237000074C05FB07F70CFB05F604FB0CFC16EB02
:10238000074642EB174216EB0C4642EB1C421BEB96
:10239000060658EB0202414146EA9E0601D5BDE819
:1023A0000189B619524141EB0101A3F10103BDE8D6
:1023B00001894FEA14454FEA114724EA054621EA0C
:1023C000074C05FB07F406FB07F70CFB06F105FBC2
:1023D0000CFC11EB074144EB17444FEA124711EB99
:1023E0000C4144EB1C4422EA074C05FB07F206FBB8
:1023F00007F70CFB06F605FB0CFC16EB074642EB59
:10240000174216EB0C4642EB1C456A1854F10001CA
:1024100048BF7047B619524141EB0101A3F10103D6
:10242000704795F0000F37D04FEA11424FEA14473A
:1024300021EA024624EA074C02FB07F106FB07F7F4
:102440000CFB06F402FB0CFC14EB074441EB1741B8
:102450004FEA154714EB0C4441EB1C4125EA074CAD
:1024600002FB07F506FB07F70CFB06F602FB0CFC6C
:1024700016EB074645EB174516EB0C4645EB1C42A1
:10248000121951F1000148BF7047B619524141EB92
:102490000101A3F1010370474FEA14454FEA1147C8
:1024A00024EA054621EA074C05FB07F106FB07F77E
:1024B0000CFB06F24FF0000605FB0CFC12EB07428A
:1024C00041EB174112EB0C4251EB1C4148BF7047E6
:1024D000921841EB0101A3F10103704730B589B0B7
:1024E00005460C461022002105A815F0D9F8224611
:1024F00005A905A814F026FE9DF8140000F0800040
:10250000E8B100BF00200AE005A9095C4A0005AB5C
:10251000411C595C42EAE11105AA1154401C0F28E4
:10252000F2DB9DF823104906090E8DF8231000BF39
:102530009DF8230080F087008DF8230016E000BF8F
:1025400000200AE005A9095C4A0005AB411C595C62
:1025500042EAE11105AA1154401C0F28F2DB9DF854
:1025600023104906090E8DF8231000BFD4F814017A
:1025700010280FD100BF002009E004F20111095C0E
:1025800005AA125C514004F201121154401C10289B
:10259000F3DB5DE09DF8140000F08000E8B100BFBF
:1025A00000200AE005A9095C4A0005AB411C595C02
:1025B00042EAE11105AA1154401C0F28F2DB9DF8F4
:1025C00023104906090E8DF8231000BF9DF8230043
:1025D00080F087008DF8230016E000BF00200AE09D
:1025E00005A9095C4A0005AB411C595C42EAE111AE
:1025F00005AA1154401C0F28F2DB9DF82310490650
:10260000090E8DF8231000BF802104F20110D4F8C8
:102610001421815405E0002104F20110D4F81421A2
:102620008154D4F81401401CC4F814011028F2D3CA
:1026300000BF002009E004F20111095C05AA125C48
:10264000514004F201121154401C1028F3DB00BF6A
:1026500000BF00200AE004F1F101095C04F201125C
:10266000125C514004F1F1021154401C1028F2DBBD
:1026700000BF102204F1F10101A814F0F7FF224677
:10268000294601A814F05EFD1022002105A815F0CE
:1026900007F809B030BD10B504461022002104F13E
:1026A000F10014F0FDFF0020C4F81401F022002115
:1026B000204614F0F5FF10BD70B504460D462246C5
:1026C0001021284614F06CFD70BD2DE9FF41044631
:1026D0000F461546D4F81401002846D0D4F814014A
:1026E000C0F11000A84204D2D4F81401C0F11000C7
:1026F00000E028460646B2B204F20111D4F81431C3
:102700005818394614F0B2FFD4F814013044C4F814
:102710001401D4F81401102801D3B54201D1BDE849
:10272000FF8100BF00200AE004F1F101095C04F21E
:102730000112125C514004F1F1021154401C1028A6
:10274000F2DB00BF102204F1F101684614F08EFFA5
:1027500022466946684614F0F5FC1022694604F1E9
:10276000F10014F083FF3744AD1B21E000BF0020CF
:1027700008E004F1F101095C3A5C514004F1F10216
:102780001154401C1028F4DB00BF102204F1F101A9
:10279000684614F06BFF22466946684614F0D2FC86
:1027A0001022694604F1F10014F060FF1037103D6B
:1027B000102DDBD8AAB2394604F2011014F056FFEE
:1027C000C4F8145100BFAAE7012806D002281BD084
:1027D000032831D004285DD145E004220A704A70F4
:1027E00008228A70CA70384A4A60384A8A60384A71
:1027F000CA60384A0A61384A4A61384A8A61384AA6
:10280000CA61384A0A625CE004220A704A700122F6
:102810008A702022CA70344A4A60344A8A60344A34
:10282000CA60344A0A61344A4A61344A8A61344A85
:10283000CA61344A0A6244E003220A704A700122E3
:102840008A70CA70304A4A60304A8A60304ACA6028
:10285000304A0A61304A4A61304A8A61304ACA6164
:10286000304A0A622DE003220A704A7001228A70FF
:10287000CA702D4A4A602D4A8A602D4ACA602D4A84
:102880000A612D4A4A612D4A8A612D4ACA612D4A40
:102890000A6216E004220A704A7008228A70CA701E
:1028A000094A4A60094A8A60094ACA60094A0A61B3
:1028B000094A4A61094A8A61094ACA61094A0A629F
:1028C00000BF00BF704700000B0D0108030D010899
:1028D000050E0108750E0108710D0108F10D0108C2
:1028E0001D0D0108450D0108D1100108C91001088E
:1028F000D5110108F111010849110108C911010898
:10290000F910010821110108A50E01089D0E01080A
:10291000310F0108A50F0108DD0E01081D0F010888
:10292000B10E0108D10E01083D120108351201084F
:10293000C1120108DD12010875120108B512010863
:10294000491201086912010870B505460E460024B7
:1029500009E02946204602F099FC012801D12046D1
:1029600070BD601C84B2B442F3DB0020F8E770B5A0
:1029700005460E46002409E02946204602F086FC62
:10298000012801D1002070BD601C84B2B442F3DB89
:102990000120F8E700210448008840F6B83250438F
:1029A000B0FBF1F080B27047F800F81F00BFEFF302
:1029B0001081016072B67047016881F3108800BF12
:1029C0007047000010B5034812F03AFF10F0B0FB5A
:1029D00010BD00003C28002000B50023FFF7DAFFFF
:1029E0001C49088002F00EFB08B900232FE01948AB
:1029F000008840F6B831884201DBFE2327E0154805
:102A00000088B0F5166F14DD1248008840F6B83122
:102A100088420EDA0F480088A0F5166000EB4001EE
:102A2000C1EB00204FF4167190FBF1F0401CC3B2D3
:102A30000DE00848008840F6FC01884206DD0548A4
:102A40000088B0F5166F01DC012300E0FF23184673
:102A500000BD0000FA030020054800680449D03991
:102A6000D1F8D410484002491431096848407047F1
:102A7000D000F81F0EB52F480078002840D10090F4
:102A800003460122182101902B4802F04DFC002042
:102A90000090034601226FF000410190274802F0A8
:102AA00043FC01202649087082022649264801F08D
:102AB000B3FF4FF48062254923480C3001F0ACFF8E
:102AC00009230A2201212048403813F0C5FF0020C5
:102AD0000090019003464FF46122022102901A48AF
:102AE000403813F09DFF0FF0DDFF00F061F802F0B9
:102AF00089FA012806D1012108460BF0B7FC01E054
:102B000013F010FB6FF00040052106230722CDE9EA
:102B1000001000210E4812F0EDFF10F057FB0548A1
:102B2000007830B901200349087010F0FFFA10F066
:102B3000CFFB0EBDF8030020281B0020441B002003
:102B4000F9030020BC1B0020A01B0020BC1F00209C
:102B50003C280020704710B572B60BF03DFC62B601
:102B600010BD000008B56846FFF720FF00BF00BF9A
:102B700000BF00BF00BFBFF34F8F00BF00BF00BF4B
:102B80000948006800F4E06008490843001D064950
:102B9000086000BF00BF00BFBFF34F8F00BF00BF82
:102BA00000BF00BF00BFFDE70CED00E00000FA052C
:102BB00010B503F0E1F903F0F3F903F0E7F910BD04
:102BC00000BFFEE70848006C60B90848D0F834043C
:102BD0000549B1F8BC1148430449D1F83414411AED
:102BE0000148016470470000E40F0020280A00201B
:102BF00010B504460748D0F8480350B10548D0F84E
:102C00004803806828B10348D0F84803816820460B
:102C1000884710BD280A00202DE9F04105460E46E0
:102C200019480078001DF22802DD0020BDE8F0817F
:102C30001649304615F0E2FA074615F097FA04B245
:102C4000114801780078401C0F4A10701048455414
:102C500002220D4801780078401C0B4B18700C487C
:102C60004254C4F30722184601780078401C1870BB
:102C700007484254184602780078401C18700448EF
:102C8000845418460078D1E7FC0300200000C842B5
:102C9000BC23002030B5024611480078C01CF22841
:102CA00001DD002030BD0E4803780078401C0C4C3C
:102CB00020700C48C2540023204604780078401C41
:102CC000074D287007480355284603780078401CB4
:102CD0002C4620700348C15420460078E2E70000EB
:102CE000FC030020BC23002010B5044604480278F1
:102CF0000449204614F0BAFC0148007810BD0000D9
:102D0000FC030020BC23002001480078704700002D
:102D1000FC0300200020014908707047FC030020DC
:102D200038B505460C46002000906946284602F05A
:102D30004BFA08B1002038BD0098844202D80098B0
:102D4000401C08B90120F6E70020F4E710B508F0B0
:102D50006FFE08B10E2010BD0848D0F8B001012860
:102D600009D108F06BFE08B10F20F4E708F064FE0B
:102D700008B10F20EFE70020EDE70000E40F00208E
:102D80000346012B03D1012901D102B9704700206C
:102D9000FCE702468A4201DB012070470020FCE785
:102DA00010B50C4A92F878100B4A92F83004FFF7ED
:102DB000F0FF08B1012010BD074890F8C004C0F32F
:102DC000400028B1044890F87204012800D1F2E7CD
:102DD0000020F0E7E40F0020280A002010B50F4A79
:102DE00092F878100E4A92F83004FFF7D2FF08B13B
:102DF000012010BD0A4890F8C004C0F3400050B153
:102E00000748D0F8500420B10548D0F850040128F4
:102E100001D10120EDE70020EBE70000E40F0020E6
:102E2000280A002010B520220021024814F038FCA6
:102E300010BD00005408002038B504460020009062
:102E40006946204613F000FE002827D19DF80000B7
:102E50001B2823D112A0FDF7E3FA00BF69462046E4
:102E600013F0F2FD0028F9D19DF800100EA0FDF737
:102E7000D7FA9DF800004E2810D1002000900BF0EA
:102E800015FE18B109A0FDF7CBFA02E00FA0FDF77F
:102E9000C7FA15A0FDF7C4FA00BFFEE738BD000071
:102EA000455343202B20000025630A000A0A4E5692
:102EB0004D20666163746F7279207265736574204A
:102EC000737563636565640A000000000A0A4E5664
:102ED0004D20666163746F7279207265736574202A
:102EE0006661696C65640A000A0A504C45415345A5
:102EF0002052455345542054484520454E442D44C6
:102F000045564943450A0A002DE9F043CBB0044633
:102F10000E4691461F46DDF8488116B1B8F1000F04
:102F200003D102204BB0BDE8F08301A8FFF7B3FB4B
:102F30006946384602F028F905461DBB0099091D6F
:102F400001A8FFF7B9FB24B11022214601A8FFF721
:102F5000BCFB4A46314601A8FFF7B7FB01A947A8C9
:102F6000FFF7BCFA9DF81F0100069DF81E1140EA0C
:102F700001409DF81D1140EA01209DF81C110843F5
:102F8000C8F800002846CDE72DE9F04F87B0054688
:102F90000C4616461F46DDE911ABDDF84090DDF822
:102FA0004C8015B1B8F1000F03D1092007B0BDE87E
:102FB000F08FB4F5807F01DD0D20F7E703A84B46C5
:102FC0003A463146CDE900AB029020460CF0DCFADF
:102FD00033462246294603A8CDF8008011F037FE7B
:102FE00008B10E20E2E70020E0E72DE9F04F89B0BC
:102FF00005460C4616461F46DDE914ABDDF84C903D
:10300000DDF8588015B1B8F1000F03D1092009B0DF
:10301000BDE8F08FB4F5807F01DD0D20F7E705A84E
:103020008DE8000E03903A4631462046129B0CF084
:10303000E5FA33462246294605A8CDF8008011F06E
:1030400006FE08B10E20E2E70020E0E738B5274D84
:1030500095F879506BB2254D95F9492095F88D106A
:10306000A86D0DF02DFE44B2214829460090CB6D8D
:1030700091F86020886D21460FF0F9F91C481C304A
:103080002C460090E36D94F8602094F8804061B283
:103090002C46A06D0FF0EBF92046816E1548D0F854
:1030A000CC0308441349C1F8B8032046C16E114847
:1030B000D0F8E80308440F49C1F8BC032046D0F813
:1030C000CC0188B92046016F0A48D0F8CC030844E7
:1030D0000849C1F8B8032046416F0648D0F8E80314
:1030E00008440449C1F8BC0338BD0000E40F0020C7
:1030F000E80D0020280A002002460548824205D932
:103100004FF47A7050430860012070470020FCE7BC
:103110003789410030B50246002300200AE001242F
:103120008440144001258540AC4201D15C1CE3B2CF
:10313000441CE0B28842F2DB184630BDF0B50246CE
:103140000B460E4D69170AB90020F0BD002010E0B3
:10315000145C6140002408E001F00106761E074F70
:10316000B74387EA5101661CB4B2082CF4DB441C57
:10317000A0B29842ECDBC843E7E700002083B8ED3B
:103180000146C84370474FF0FF307047F0B5044622
:103190000B460F4E21460BB90020F0BD002012E077
:1031A0001D5C694000250AE001F001077F1EDFF881
:1031B00020C02CEA070C8CEA51016F1CBDB2082D0F
:1031C000F2DB451CA8B29042EADB0846E5E70000C6
:1031D0002083B8ED704710B50446204600F001F892
:1031E00010BD10B50446204602F038FF10BD7FB573
:1031F00004460D4615B9092004B070BD00200090AA
:10320000019002900390022C02D0032C08D103E01D
:1032100006208DF8000005E005208DF8000001E093
:103220000A20E9E700BF082229460DF1010014F049
:1032300029FA22460121684611F01FFD08B10E202F
:10324000DAE70020D8E72DE9FF4106460C4615468F
:103250001F4600200090019002900390042E06D09B
:10326000052E05D0062E04D0072E0AD105E000BF9A
:1032700000BF01208DF8000007E002208DF800005B
:1032800003E00A2004B0BDE8F08100BFE0B28DF891
:103290000100200A8DF80200200C8DF80300E8B22E
:1032A0008DF80400280A8DF80500280C8DF806001A
:1032B000F8B28DF80700380A8DF80800324601216F
:1032C000684611F0DAFC08B10E20DBE70020D9E7F0
:1032D0002DE9FF4105460C4616461F461EB909203A
:1032E00004B0BDE8F08100200090019002900390AE
:1032F0004FF00108042D06D0052D08D0062D0AD068
:10330000072D12D10BE001208DF800000FE0032003
:103310008DF800000BE004208DF8000007E04FF06E
:10332000000802208DF8000001E00A20D8E700BF65
:10333000E0B28DF80100200A8DF80200200C8DF813
:1033400003000822314601A814F09CF9F8B28DF868
:103350000C00380A8DF80D002A464146684611F0E7
:103360008CFC08B10E20BBE70020B9E7024602B191
:1033700009B903207047107B00F00F00002806DD1C
:1033800092F82000002802DD002008601CE092F87E
:10339000280010B90120086016E0107B00F00F0033
:1033A00028B992F8200010B9022008600CE0107BC8
:1033B00000F00F0030B992F82000002802DD032051
:1033C000086001E01720D5E70020D3E770B5064676
:1033D0000C4615460BA014F013FB314618A014F050
:1033E0000FFB6378A278E1781CA014F009FB6B78DE
:1033F000AA78E97822A014F003FB02A014F000FBE5
:1034000070BD00000A232323232323203D3D3D3D9F
:103410003D3D3D3D3D3D3D3D3D3D3D3D3D3D3D3DDC
:103420003D3D3D3D3D3D3D3D3D3D3D3D3D3D3D3DCC
:103430003D202323232323230A0A0D0A0000000032
:103440004170706C69636174696F6E206E616D6547
:103450002020203A2025730A0D0A00004170706C6C
:1034600069636174696F6E2076657273696F6E3A15
:103470002025642E25642E25640A0D0A0000000014
:10348000476974487562206261736520766572735E
:10349000696F6E3A2025642E25642E25640A0D0A74
:1034A0000000000010B50446606830B1012808D063
:1034B00002280AD0032831D000BF1BA014F0A0FAC4
:1034C00030E027A014F09CFA2CE033A0A16814F09F
:1034D00097FAA17E3BA014F093FA3FA014F090FA63
:1034E000062104F11B000CF0FFF91CA014F088FA6F
:1034F0003EA0216914F084FA217D42A014F080FAE4
:10350000B4F9161045A014F07BFA94F9181048A0ED
:1035100014F076FA11A014F073FA03E049A014F045
:103520006FFA00BF00BF10BD0A23232323232320EB
:103530003D3D3D3D3D3D3D3D3D20424541434F4E9E
:1035400020414351554952494E47203D3D3D3D3D67
:103550003D3D3D3D3D202323232323230A0D0A0027
:103560000A232323232323203D3D3D3D3D3D3D3D77
:103570003D3D3D3D20424541434F4E204C4F53542D
:10358000203D3D3D3D3D3D3D3D3D3D3D3D202323D9
:10359000232323230A0D0A000A2323232323232082
:1035A0003D3D3D3D3D20424541434F4E2025386C39
:1035B00075203D3D3D3D202323232323230A0D0A6F
:1035C000000000004757204445534320202020207E
:1035D0003A2025640A0D0A00475720494E464F20DD
:1035E000202020203A200D0A0000000046524551BC
:1035F00020202020202020203A20256C750A0D0A4A
:1036000000000000444154412052415445202020F4
:103610003A2044525F25640A0D0A00005258205295
:1036200053534920202020203A2025640A0D0A0007
:10363000525820534E522020202020203A2025642A
:103640000A0D0A000A232323232323203D3D3D3D69
:103650003D3D3D3D20424541434F4E204E4F54207D
:103660005245434549564544203D3D3D3D3D3D3D48
:103670003D202323232323230A0D0A0010B50446EB
:1036800002A0015D02A014F0BBF910BD414243004D
:103690000A0A232323232323203D3D3D3D3D205380
:1036A000776974636820746F20436C61737320259D
:1036B0006320646F6E652E20203D3D3D3D3D2023FF
:1036C00023232323230A0A0D0A00000010B5044611
:1036D00020680078012816D1A068002821D111A007
:1036E00014F08EF91DA014F08BF92068C1691EA09A
:1036F00014F086F922A014F083F994F9041022A0A2
:1037000014F07EF90DE007A014F07AF924A014F06B
:1037100077F92068C16925A014F072F918A014F097
:103720006FF910BD232323232323203D3D3D3D3D41
:103730003D3D3D3D3D3D2020204A4F494E454420E2
:10374000202020203D3D3D3D3D3D3D3D3D3D3D3D1D
:10375000202323232323230A0D0A00000A4F544168
:10376000410A0A0D0A000000446576416464722033
:10377000202020203A20202530386C580A0D0A00DD
:103780000A0A0D0A000000004441544120524154ED
:10379000452020203A2044525F25640A0A0D0A0081
:1037A0000A4142500A0A0D0A0000000044657641B1
:1037B00064647220202020203A202530386C580A7A
:1037C0000D0A000070B504460D461646286800280C
:1037D0000ED0012802D003281ED113E01AA014F045
:1037E0000FF927A014F00CF933A014F009F91DE02B
:1037F00015A014F005F93EA014F002F92EA014F063
:10380000FFF813E010A014F0FBF847A014F0F8F84C
:1038100029A014F0F5F809E00BA014F0F1F850A07D
:1038200014F0EEF824A014F0EBF800BF00BF5A48E3
:1038300050F8241059A014F0E3F80B2C03D13146B2
:103840005BA014F0DDF870BD0A232323232323207B
:103850003D3D3D3D3D3D3D3D3D3D3D204D43505376
:103860002D52657175657374203D3D3D3D3D3D3D77
:103870003D3D3D3D3D202323232323230A0D0A0004
:103880002323232323232020202020202020202026
:1038900020204D4350535F434F4E4649524D4544BF
:1038A000202020202020202020202020202323230F
:1038B0002323230A0D0A0000232323232323203D4F
:1038C0003D3D3D3D3D3D3D3D3D3D3D3D3D3D3D3D28
:1038D0003D3D3D3D3D3D3D3D3D3D3D3D3D3D3D3D18
:1038E0003D3D3D3D202323232323230A0D0A0000D1
:1038F00023232323232320202020202020202020B6
:10390000204D4350535F554E434F4E4649524D450F
:10391000442020202020202020202020202323237A
:103920002323230A0D0A00002323232323232020FB
:103930002020202020202020204D4350535F505233
:103940004F505249455441525920202020202020D8
:1039500020202020202323232323230A0D0A0000D4
:103960002323232323232020202020202020202045
:103970002020202020204D4350535F4552524F526B
:10398000202020202020202020202020202323232E
:103990002323230A0D0A000004010020535441543C
:1039A00055532020202020203A2025730A0D0A009C
:1039B0004E65787420547820696E20203A20256C5A
:1039C00075205B6D735D0A0D0A00000070B504463A
:1039D0000D4616462868012806D004280ED0052872
:1039E00020D0082828D113E01FA014F009F82CA03B
:1039F00014F006F838A014F003F827E01AA013F02A
:103A0000FFFF43A013F0FCFF33A013F0F9FF1DE00C
:103A100015A013F0F5FF4CA013F0F2FF2EA013F049
:103A2000EFFF13E010A013F0EBFF55A013F0E8FF39
:103A300029A013F0E5FF09E00BA013F0E1FF5EA061
:103A400013F0DEFF24A013F0DBFF00BF00BF6848C7
:103A500050F8241067A013F0D3FF0B2C03D131468C
:103A600069A013F0CDFF70BD0A2323232323232055
:103A70003D3D3D3D3D3D3D3D3D3D3D204D4C4D455C
:103A80002D52657175657374203D3D3D3D3D3D3D55
:103A90003D3D3D3D3D202323232323230A0D0A00E2
:103AA0002323232323232020202020202020202004
:103AB00020202020204D4C4D455F4A4F494E20206C
:103AC00020202020202020202020202020232323ED
:103AD0002323230A0D0A0000232323232323203D2D
:103AE0003D3D3D3D3D3D3D3D3D3D3D3D3D3D3D3D06
:103AF0003D3D3D3D3D3D3D3D3D3D3D3D3D3D3D3DF6
:103B00003D3D3D3D202323232323230A0D0A0000AE
:103B10002323232323232020202020202020202093
:103B200020204D4C4D455F4C494E4B5F434845432B
:103B30004B20202020202020202020202023232351
:103B40002323230A0D0A00002323232323232020D9
:103B5000202020202020202020204D4C4D455F4457
:103B600045564943455F54494D452020202020209B
:103B700020202020202323232323230A0D0A0000B2
:103B80002323232323232020202020202020202023
:103B900020202020204D4C4D455F54584357202075
:103BA000202020202020202020202020202323230C
:103BB0002323230A0D0A0000232323232323202069
:103BC0002020202020202020202020204D4C4D454A
:103BD0005F554E4B4E4F574E202020202020202056
:103BE00020202020202323232323230A0D0A000042
:103BF00004010020535441545553202020202020FC
:103C00003A2025730A0D0A004E65787420547820F6
:103C1000696E20203A20256C75205B6D735D0A0D5E
:103C20000A00000070B5044661781AA013F0E8FE9F
:103C3000012505E0601C415D1CA013F0E1FE6D1C38
:103C4000082DF7DB1BA013F0DBFE617A1AA013F03E
:103C5000D7FE012506E004F10900415D13A013F031
:103C6000CFFE6D1C082DF6DB12A013F0C9FE617C9F
:103C700017A013F0C5FE012506E004F11100415D17
:103C80000AA013F0BDFE6D1C042DF6DB16A013F088
:103C9000B7FE70BD44657645756920202020202040
:103CA0003A20253032580D0A000000002D25303210
:103CB000580D0A000A0D0A004A6F696E45756920A1
:103CC000202020203A20253032580D0A0000000024
:103CD00050696E2020202020202020203A202530EE
:103CE00032580D0A000000000A0A0D0A0000000008
:103CF00070B504460D46012C03D106A013F080FEDA
:103D000002E012A013F07CFE29461EA013F078FEFC
:103D100070BD00000A232323232323203D3D3D3D86
:103D20003D3D3D3D3D3D3D3D204354585320535482
:103D30004F524544203D3D3D3D3D3D3D3D3D3D3D9A
:103D40003D202323232323230A0D0A000A232323B0
:103D5000232323203D3D3D3D3D3D3D3D3D3D3D201B
:103D60004354585320524553544F524544203D3DEF
:103D70003D3D3D3D3D3D3D3D3D202323232323232C
:103D80000A0D0A0053697A65202020202020202077
:103D90003A2025690A0A0D0A0000000030B587B0F4
:103DA00005460C461822264901A8FCF7DFFC2078BE
:103DB00058B924A013F024FE304A606852F820104D
:103DC0002FA013F01DFE07B030BD32A013F018FE77
:103DD0002A4A606852F8201029A013F011FE3BA077
:103DE000216913F00DFE94F9140001AA52F8201075
:103DF00043A013F005FE297846A013F001FE687871
:103E000030B149A013F0FCFD697868680BF06CFDD7
:103E100019A013F0F5FD94F90C1048A013F0F0FD73
:103E200094F90D104BA013F0EBFD94F90E104EA079
:103E300013F0E6FD10A013F0E3FD00BFC3E70000A0
:103E4000C88901080A232323232323203D3D3D3D28
:103E50003D3D3D3D3D3D204D4C4D452D496E6469F8
:103E6000636174696F6E203D3D3D3D3D3D3D3D3D8F
:103E70003D202323232323230A0D0A00640100206D
:103E80005354415455532020202020203A2025739C
:103E90000A0D0A000A232323232323203D3D3D3D11
:103EA0003D3D3D3D3D3D204D4350532D496E6469A0
:103EB000636174696F6E203D3D3D3D3D3D3D3D3D3F
:103EC0003D202323232323230A0D0A000A2323232F
:103ED000232323203D3D3D3D3D2020444F574E4C64
:103EE000494E4B204652414D452025386C752020C7
:103EF0003D3D3D3D3D202323232323230A0D0A007E
:103F000052582057494E444F572020203A202573BD
:103F10000A0D0A00525820504F52542020202020D1
:103F20003A2025640A0D0A00525820444154412089
:103F3000202020203A200A0D0A000000444154416C
:103F400020524154452020203A2044525F25640AE3
:103F50000D0A00005258205253534920202020209F
:103F60003A2025640A0D0A00525820534E52202050
:103F7000202020203A2025640A0D0A0030B58BB09D
:103F80000446207858B950A013F03AFD5C4A6068A6
:103F900052F820105BA013F033FD0BB030BD5EA0D3
:103FA00013F02EFD564A606852F8201055A013F009
:103FB00027FD67A0616913F023FD50A013F020FDD9
:103FC00005F0FEFB6FA10D5C29466FA013F018FDF4
:103FD0004AA013F015FD217E70A013F011FD607E44
:103FE000002816D072A013F00BFDE068012809D15B
:103FF000207C08B173A000E073A0014674A013F008
:10400000FFFC02E077A013F0FBFC617EE0690BF09F
:104010006BFC3AA013F0F4FC94F9111075A013F0A6
:10402000EFFC1E200090684609F010F948B994F89A
:10403000212002EB4202019850F8221073A013F0E5
:10404000DFFC94F9201077A013F0DAFC2320009015
:10405000684609F0FBF8002830D177A013F0D0FCB7
:1040600005F0A8FB0A2821D2DFE800F005111206AE
:104070000A070908130B00BF00BF00BF00BF00BF45
:1040800000BF0198018871A013F0BAFC12E000BFD4
:1040900000BF002507E0019830F815106BA013F061
:1040A000AFFC681CC5B2052DF5DB03E069A013F079
:1040B000A7FC00BF00BF11A013F0A2FC0FA013F0DB
:1040C0009FFC00BF69E700000A232323232323204A
:1040D0003D3D3D3D3D3D3D3D3D3D3D204D4C4D45F6
:1040E0002D436F6E6669726D203D3D3D3D3D3D3D0A
:1040F0003D3D3D3D3D202323232323230A0D0A007C
:104100006401002053544154555320202020202086
:104110003A2025730A0D0A000A2323232323232090
:104120003D3D3D3D3D3D3D3D3D3D3D204D4350539D
:104130002D436F6E6669726D203D3D3D3D3D3D3DB9
:104140003D3D3D3D3D202323232323230A0D0A002B
:104150000A232323232323203D3D3D3D3D202020D2
:1041600055504C494E4B204652414D452025386C08
:10417000752020203D3D3D3D3D2023232323232347
:104180000A0D0A0041424300434C41535320202072
:10419000202020203A2025630A0D0A005458205080
:1041A0004F525420202020203A2025640A0D0A0076
:1041B0005458204441544120202020203A200D0A08
:1041C0000000000041434B004E41434B0000000003
:1041D000434F4E4649524D4544202D2025730A0D2C
:1041E0000A000000554E434F4E4649524D45440A81
:1041F0000D0A0000444154412052415445202020E2
:104200003A2044525F25640A0D0A0000552F4C20C5
:1042100046524551202020203A20256C750A0D0A6F
:1042200000000000545820504F57455220202020B5
:104230003A2025640A0D0A004348414E4E454C2061
:104240004D41534B3A200D0A0000000025303458F0
:10425000200D0A000A232323232323203D3D3D3D37
:104260003D3D3D3D3D20556E6B6E6F776E20526536
:1042700067696F6E203D3D3D3D3D3D3D3D3D3D3DD2
:104280003D202323232323230D0A000010B5012002
:1042900002F096F810BD10B54FF4806002F090F86F
:1042A0004FF4006002F08CF84FF4805002F088F870
:1042B0004FF4005002F084F84FF4804002F080F890
:1042C0004FF4004002F07CF810BD10B5022002F05F
:1042D00077F810BD10B5042002F072F810BD10B5CB
:1042E000082002F06DF810BD10B5102002F068F83B
:1042F00010BD10B5202002F063F8402002F060F8F5
:10430000802002F05DF84FF4807002F059F84FF40D
:10431000007002F055F810BD70B504460D46164603
:10432000104820440F49884200D303E03A210EA0F0
:1043300012F0D4FF05B103E03B210BA012F0CEFF39
:1043400041F6FF70864200D203E03C2106A012F045
:10435000C5FF044821183246284613F087F901208A
:1043600070BD0000000008082E2E5C4D6964646C6E
:104370006577617265735C54686972645F506172DD
:1043800074795C4C6F526157414E5C546172676541
:10439000745C656570726F6D2D626F6172642E63FF
:1043A000000000002DE9F84305460E4617464FF081
:1043B00000081D4828441C49884200D303E01F21FF
:1043C0001AA012F08BFF06B103E0202117A012F013
:1043D00085FF41F6FF70874200D203E0212113A040
:1043E00012F07CFF01F0DEFEC0B96846FEF7DEFA8F
:1043F00000240AE0325D0C4828440119002001F035
:104400004BFE00B103E0601C84B2BC42F2DB00BF93
:104410006846FEF7D1FA4FF0010800BF01F032FE06
:104420004046BDE8F8830000000008082E2E5C4DD1
:104430006964646C6577617265735C546869726401
:104440005F50617274795C4C6F526157414E5C549D
:1044500061726765745C656570726F6D2D626F6106
:1044600072642E630000000072B600BFFEE7000019
:1044700070B504460D4600260F48844203D30F480A
:10448000844200D804E040F2FE510DA012F026FF55
:104490004CF2503000F0F2F906465EB91848006858
:1044A00020F480701649086025704CF2503000F0FE
:1044B000E5F90646304670BD00000808FF1F0808F1
:1044C0002E2E2F447269766572732F53544D3332FA
:1044D0004C3178785F48414C5F4472697665722F41
:1044E0005372632F73746D33326C3178785F686107
:1044F0006C5F666C6173685F65782E630000000016
:10450000043C024070B504460D4600260F48844224
:1045100003D30F48844200D804E040F23A610DA072
:1045200012F0DCFE4CF2503000F0A8F906465EB9FD
:104530001848006820F480701649086025804CF205
:10454000503000F09BF90646304670BD0000080868
:10455000FF1F08082E2E2F447269766572732F5341
:10456000544D33324C3178785F48414C5F44726926
:104570007665722F5372632F73746D33326C31789A
:10458000785F68616C5F666C6173685F65782E63E5
:1045900000000000043C024070B504460D460026B1
:1045A0000F48844203D30F48844200D804E040F20D
:1045B0007B610DA012F092FE4CF2503000F05EF9DB
:1045C00006465EB91848006820F4807016490860F5
:1045D00025604CF2503000F051F90646304670BD6F
:1045E00000000808FF1F08082E2E2F447269766508
:1045F00072732F53544D33324C3178785F48414CAD
:104600005F4472697665722F5372632F73746D33D2
:10461000326C3178785F68616C5F666C6173685F7B
:1046200065782E6300000000043C024070B504462B
:104630000D4600260C48844203D30C48844200D81F
:1046400004E040F29D610AA012F048FE4CF25030A6
:1046500000F014F906462EB925704CF2503000F0E7
:104660000DF90646304670BD00000808FF1F080817
:104670002E2E2F447269766572732F53544D333248
:104680004C3178785F48414C5F4472697665722F8F
:104690005372632F73746D33326C3178785F686155
:1046A0006C5F666C6173685F65782E630000000064
:1046B00070B504460D4600260C48844203D30C48CE
:1046C000844200D804E040F2D3610AA012F006FE52
:1046D0004CF2503000F0D2F806462EB925804CF24C
:1046E000503000F0CBF80646304670BD0000080898
:1046F000FF1F08082E2E2F447269766572732F53A0
:10470000544D33324C3178785F48414C5F44726984
:104710007665722F5372632F73746D33326C3178F8
:10472000785F68616C5F666C6173685F65782E6343
:104730000000000070B504460D4600260C48844277
:1047400003D30C48844200D804E040F20D710AA063
:1047500012F0C4FD4CF2503000F090F806462EB92D
:1047600025604CF2503000F089F80646304670BDA6
:1047700000000808FF1F08082E2E2F447269766576
:1047800072732F53544D33324C3178785F48414C1B
:104790005F4472697665722F5372632F73746D3341
:1047A000326C3178785F68616C5F666C6173685FEA
:1047B00065782E630000000000202E49096801F48E
:1047C0008071B1F5807F07D12B49496941F0020121
:1047D000294A516140F480702649096801F400714A
:1047E000B1F5007F07D12449496941F00101224A0E
:1047F000516140F400701F49096801F40061B1F58E
:10480000006F07D11C49496941F004011A4A5161FE
:1048100040F400601749096801F40051B1F5005FE8
:1048200007D11549496941F01001134A516140F41B
:1048300000501049096801F48051B1F5805F07D13B
:104840000D49496941F020010B4A516140F4805003
:104850000849096801F48061B1F5806F07D1064904
:10486000496941F00801044A516140F480600149FE
:1048700008607047183C02402406002070B50446CA
:1048800001F0B6FF054609E0601C38B124B101F023
:10489000AFFF401BA04201D9032070BD1E48006835
:1048A00000F001000028EFD11B48006800F0020072
:1048B000022801D1184908601748006800F4807088
:1048C000B0F5807F22D01448006800F40060B0F595
:1048D000006F1BD01048006800F40050B0F5005F76
:1048E00014D00D48006800F48050B0F5805F0DD002
:1048F0000948006800F48060B0F5806F06D0064873
:10490000006800F40070B0F5007F03D1FFF754FF9A
:104910000120C2E70020C0E7183C02402DE9F04723
:1049200088B006460C4691469A46DDE910571FB9F5
:10493000092008B0BDE8F0874FF00008002004907F
:10494000059006900790009001900290039001203E
:104950008DF800002E48006800682E49884218D95A
:10496000BAF1000F06D0BAF1010F07D0BAF1020F69
:104970000CD107E001208DF8040009E001208DF83A
:10498000040005E002208DF8040001E00820D0E7D3
:1049900000BF8DF80590E0B28DF80600200A8DF872
:1049A0000700200C8DF80800200E8DF80900E8B2F1
:1049B0008DF80A00280A8DF80B00280C8DF80C00E1
:1049C000280E8DF80D0012480068006811498842D1
:1049D00002D901208DF80F00002E17DD04AB06224E
:1049E0001021684610F0F6F808B10E20A1E700206B
:1049F0000AE008EB0001795C04AA125C514008EB64
:104A00000002B954411CC8B2B042F2DB002090E76A
:104A1000A4020020000001010023038043804160C4
:104A20000281704710B502461389481C90FBF3F4CD
:104A300003FB140080B210BD70B5044621882046E7
:104A4000FFF7F0FF61680D5C21882046FFF7EAFF61
:104A50002080284670BD70B504460D46618820460A
:104A6000FFF7E0FF608061886068455470BD40F2E8
:104A70001A40704702490A680260496841607047FD
:104A800022080020F8B504460D4617462448076062
:104A9000848085710021A0F84210A0F84010002009
:104AA0001F49886000BF06E001221D49123121F82C
:104AB0001020411C88B21528F6DB002004E00022FB
:104AC00017493C310A54401C0028F8D0002004E06B
:104AD000FF2213490C310A54401C0528F8D3002644
:104AE00012E00F48006870B10D480068006850B1CE
:104AF0000CA0006800900A4800680122694603681B
:104B00003046984700BF761C04FB05F0B042E8D859
:104B100000210348A0F84010A0F84210F8BD0000A2
:104B2000E4070020FF0000002DE9F04F91B005469A
:104B300088464FF00009CA46002010900322002149
:104B40000FA812F0ADFD3222002102A812F0A8FD3C
:104B50000122002101A812F0A3FD012200216846D4
:104B600012F09EFD9948C587B0F84200A84204DDC6
:104B70004FF0FF3011B0BDE8F08F94488088401CA2
:104B8000A84210DD91488279681E81B2404610F03B
:104B900029FE0022681E8D49123121F81020284676
:104BA00000F05EF90EE18948B0F84000052805DD07
:104BB0000121864880F844100020DBE7284600F0F9
:104BC0004FF98248B0F8400018B98048B0F840006A
:104BD000D0E77E4A91889288A81A0FAA00F082F93D
:104BE00000242CE0A0B20FA900F050FB012825D131
:104BF0007648123030F8140088B9A0B200220FA90C
:104C000010F0CCFD71488279A1B202A800F052FBED
:104C10006E48827902A9404612F080F90EE06B4995
:104C2000123131F81410491E88B2012201A910F086
:104C3000B5FDBAF1000F01D14FF0010A641C6348C1
:104C40008088A042CEDC6148B0F8401001A8FDF792
:104C50007BFE8146BAF1000FA4DD2EE05B48B0F880
:104C600040204946684600F0B3F85848B0F8402064
:104C7000694601A812F05EF9484600F01DF90446A5
:104C800052488279214602A800F014FB4F488279ED
:104C900002A9404612F042F94C48B0F8401001A871
:104CA000FDF765FE10B1012010900DE04748B0F807
:104CB000401001A8FDF748FE814644493C31484672
:104CC00000F0E4FA0128C9D000BF1098D8B93F48D5
:104CD000B0F84020494601A800F04AF9484600F0E3
:104CE000EBF80446394882792146404610F07AFDB7
:104CF000012236493C31484610F050FD3348806867
:104D0000401C3249886031488168B0F840008142D7
:104D100057D12E48B0F8400001284EDD2B48B0F89E
:104D20004000861E43E0B0B200F0C6F804462748B3
:104D30008279214602A800F0BDFA2448B0F840006C
:104D4000471E2BE02148B0F84020B1B2684600F081
:104D50003FF81E48B0F84020B9B201A800F038F87A
:104D6000B8B2694600F092FA012816D11748B0F897
:104D7000402001A9684612F0DDF8B8B200F09CF8B6
:104D80008346124882795946404600F093FA0F480C
:104D90008279414602A812F0C1F87F1EB742D1DCE9
:104DA0000A488279A1B202A810F01CFD761E002EDE
:104DB000B9DA0648B0F84000DCE60448B0F8400034
:104DC000D8E600BF4FF0FF30D4E60000E407002033
:104DD0002DE9F04780460C4615464FF000090026A5
:104DE000002C13DD04FB05F1601E6043A1EB6000A5
:104DF0004FEAE00904FB05F2611E6143A2EB61008A
:104E0000C11700EB5171C910A0EBC106002C0ADDDF
:104E1000002706E000224146384610F0BFFC781C0F
:104E200087B2A742F6DB274613E00C4810F80900CA
:104E3000C6F10701084100F001024146384610F072
:104E4000ADFC761C082E02D1002609F10109781C60
:104E500087B2AF42E9DBBDE8F0870000F007002031
:104E60000146144AB2F8420011E0124A9288824286
:104E70000CDD104AB2F84020521C93B20D4AA2F841
:104E80004030B2F84030123222F81030401C4A1E36
:104E90008242EADC074A9288824203DD054AA2F890
:104EA000421006E0034A9288521C93B2014AA2F8CB
:104EB00042307047E40700200146002008E0084A1D
:104EC00032F810304A1C934200D17047421C90B215
:104ED000034A123A92888242F1DC0020F5E7000092
:104EE000F60700202DE9F04780460C4615464FF0A6
:104EF0000009204604F06DFB08B1012600E0002601
:104F000040F2E93108FB01F0471C002003E00021DA
:104F10002954411C88B2012101EBE4018142F6DCF5
:104F200015E04FF4803A08E0384600F015F80746DF
:104F3000A01997FBF0F100FB117AA245F4DA1FFAF1
:104F40008AF00122294610F029FC09F10109B9EB88
:104F5000640FE6DBBDE8F08710B5014601F0010300
:104F6000C1F340124C1083EA020004EB805010BDE4
:104F70002DE9F04781460C46154600260027002CF7
:104F800012DD04FB05F1601E6043A1EB6000C6105A
:104F900004FB05F2611E6143A2EB6100C11700EB47
:104FA0005171C910A0EBC107A04618E04946404620
:104FB00000F06CF950B90C48805DC7F1070201217F
:104FC0009140C1F1FF010140074881557F1C082F26
:104FD00001D10027761C08F101001FFA80F8A845CE
:104FE000E4DBBDE8F0870000F007002010B50446C0
:104FF0000CB9002010BD10220021204612F050FBF9
:105000000120F7E70348007808B901207047002025
:10501000FCE70000F90300203FB504462088C1B931
:1050200042F21072029BB3F5616F01D2642209E073
:1050300049F6B025029BAB4202D24FF47A7201E0EE
:1050400042F21072904201DD034600E0134618461A
:1050500000BF00B9012004B030BD00002DE9F041CF
:1050600004460D4690462E460E4991F8480004F03D
:10507000A3FA10B10020BDE8F08100270AE03068F3
:10508000A04201D13046F6E7304604F05DFA06460C
:10509000781CC7B2034890F84800B842EFDC002003
:1050A000E9E70000B41A00202DE9FF4105460E464D
:1050B0001746DDE90A481FB114B1B8F1000F03D15A
:1050C000092004B0BDE8F081052D20D2DFE805F00D
:1050D0001316191C03009DF80E00012808D10EB10B
:1050E000032E02D10220206004E00120206001E0B4
:1050F000032020600DE0042020600AE005202060ED
:1051000007E00620206004E00720206001E0052081
:10511000D7E700BFF9894246206806F04AFFD0E78A
:105120000246002111E00B4850F8310090420AD8A5
:10513000084B481C53F83000904204D9184600EB45
:10514000C10000797047481CC1B21529EBD300BFDC
:10515000FEE70000688D010802460B4600210DE0C5
:10516000084800EB01100068904205D1054800EBAB
:105170000110186000207047481CC1B20529EFDB00
:105180000B20F8E7A802002010B502460B460021CC
:1051900014E001EB81040B480068143050F824003F
:1051A000904209D101EB810406480068143000EBFD
:1051B00084001860002010BD481CC1B21729E8DB2C
:1051C0000320F8E784000020024609B9092070474F
:1051D000082A3AD2DFE802F039040F1A252A2F34C0
:1051E0001C480068006908601A4800680069194B8B
:1051F0001B6818632BE01748006840690860154871
:1052000000684069134B1B68186320E01148006870
:10521000806908600F48006880690E4B1B6818633E
:1052200015E00C480068C069086010E00948006893
:10523000006A08600BE007480068406A086006E002
:1052400004480068806A086001E00520BFE700BFED
:105250000020BCE7A40200203EB50446084890F8B0
:105260008C008DF809008DF808400D20019004494C
:10527000886D01A90DF01BF900900098C0B23EBDE9
:10528000E40F002000487047E40F002010B50246EC
:1052900001EBE20003781046D41702EB5474E410DB
:1052A000A2EBC404C4F1070443FA04F404F00103BC
:1052B000184610BD70B504460D46164607480068EE
:1052C00058B106480068406838B105FB06F003494C
:1052D000096832464B682146984770BDE4070020B4
:1052E0002DE9FF4104460D460C48005D46B20C49CD
:1052F00020460CF0F4FE80460121E8B2002208238B
:10530000CDE90032CDE9020106480B46324641465E
:10531000476A0120B84704B0BDE8F081D48A01088B
:10532000DC8A01087C8C01082DE9FC4704460D4607
:1053300016461F46DDE90A893B4632462946204685
:10534000CDE9008900F002F8BDE8FC872DE9F043C3
:1053500087B004460D4616461F46DDE90E982560C7
:10536000702D7CD225606FF00040854202D107B0DD
:10537000BDE8F083207800F00F0101208840A08074
:10538000207800F0F00078B94848A06000BF484895
:10539000006840F00100464908600846006800F0D7
:1053A0000100019000BF4EE0207800F0F0001028CE
:1053B0000FD14048A06000BF3D48006840F00200A7
:1053C0003B4908600846006800F00200019000BFF9
:1053D00039E0207800F0F00020280FD13648A06096
:1053E00000BF3348006840F00400314908600846B7
:1053F000006800F00400019000BF24E0207800F075
:10540000F00030280FD12D48A06000BF2848006868
:1054100040F00800264908600846006800F00800CF
:10542000019000BF0FE02648A06000BF2048006840
:1054300040F020001E4908600846006800F0200087
:10544000019000BF00BFA0880290C4F81090CDF872
:105450001090022005901EB90020039018E022E071
:10546000032E02D10320039012E0022E09D1012F56
:1054700002D11220039001E002200390CDF81880A1
:1054800006E0012F02D11120039001E001200390DA
:10549000012E03D14146204600F0F0F802A9A06891
:1054A00000F09CFF00BF00BF61E700000000024069
:1054B0001C3802400004024000080240000C024078
:1054C0000014024010B504462068702811D224B997
:1054D0004FF49F7108A011F001FF6FF000412068A8
:1054E000884201D1002010BDA188A06801F010F908
:1054F000F9E70020F7E700002E2E5C4D6964646C2C
:105500006577617265735C54686972645F5061723B
:1055100074795C4C6F526157414E5C54617267659F
:10552000745C6770696F2D626F6172642E63000036
:105530002DE9F04385B004460D4616461F46206807
:10554000702870D24FF000084FF0060917B905B067
:10555000BDE8F083A761A0880090012D03D14FF42E
:105560008810019008E0022D03D14FF4041001903F
:1055700002E04FF444100190206902900220039051
:105580006946A06800F02AFF052E0ED2DFE806F07B
:105590000304070A0E0000BF4FF0030809E04FF0B4
:1055A000020806E04FF0010803E000BF4FF00008DA
:1055B00000BF00BFA088B0F5807F3ED012DC10286D
:1055C00035D008DC012825D0022826D0042827D091
:1055D00008283ED128E020282CD040282BD0802835
:1055E00037D129E0B0F5805F2DD009DCB0F5007F20
:1055F00024D0B0F5806F24D0B0F5006F29D121E020
:10560000B0F5005F20D0B0F5804F1ED0B0F5004F50
:105610001FD11BE04FF006091CE04FF0070919E00D
:105620004FF0080916E025E04FF0090912E04FF0AD
:105630000A090FE000BF00BF00BF00BF4FF017090D
:1056400008E000BF00BF00BF00BF00BF4FF0280947
:1056500000E000BF00BF207800F00F00064941F8CD
:10566000204000224146484601F074F9484601F0C6
:105670003BF900BF00BF6AE7B024002070B50446C4
:105680000D462068702810D224B940F20D1108A0F0
:1056900011F024FE6FF000412068884200D170BDF7
:1056A000A1882A46A06801F067F800BFF7E700006C
:1056B0002E2E5C4D6964646C6577617265735C5411
:1056C000686972645F50617274795C4C6F526157A3
:1056D000414E5C5461726765745C6770696F2D62DE
:1056E0006F6172642E63000010B504462046FFF718
:1056F000E9FE10BD2DE9F04104460D4616461F4651
:105700003B46324629462046FFF712FFBDE8F081AE
:1057100070B504460D4629462046FFF7AFFF70BD21
:10572000F8B505460C46002600200090DA492868A6
:10573000884200D104E040F2A371D8A011F0CEFD60
:10574000206800284DD0206801284AD0206802280F
:1057500047D02068032844D02068042841D020681E
:1057600005283ED0206806283BD02068072838D07E
:105770002068082835D02068092832D020680A28F7
:105780002FD020680B282CD020680C2829D0206826
:105790000D2826D020680E2823D020680F2820D07E
:1057A000206810281DD0206811281AD020681228DF
:1057B00017D02068132814D02068142811D020682E
:1057C00015280ED0206816280BD02068172808D07E
:1057D0002068182805D02068192802D020681A28C7
:1057E00000D104E040F2A471ACA011F077FD606834
:1057F000012850D0606802284DD0606803284AD044
:105800006068042847D06068052844D0606806288E
:1058100041D0606807283ED0606808283BD06068A7
:10582000092838D060680A2835D060680B2832D043
:1058300060680C282FD060680D282CD060680E2876
:1058400029D060680F2826D06068102823D06068AF
:10585000112820D0606812281DD0606813281AD043
:105860006068142817D06068152814D0606816285E
:1058700011D0606817280ED0606818280BD06068B7
:10588000192808D060681A2805D060681B2802D043
:1058900060681C2800D104E040F2A5717FA011F0DF
:1058A0001DFDA068A0B1A068012811D0A068022841
:1058B0000ED0A06803280BD0A068042808D0A068E8
:1058C000052805D0A068062802D0A068072800D1C6
:1058D00004E040F2A67171A011F000FD00BFA86CB9
:1058E000012801D10220F8BD0120A86400BF606832
:1058F000072812D22868006C2179491E01EB810229
:105900001F21914088432279521E02EB82022168B6
:10591000914008432968086453E060680D2812D25A
:105920002868C06B2179C91F01EB81021F219140BA
:1059300088432279D21F02EB8202216891400843FA
:105940002968C8633DE06068132812D22868806B1C
:1059500021790D3901EB81021F2191408843227981
:105960000D3A02EB8202216891400843296888635E
:1059700027E06068192812D22868406B2179133912
:1059800001EB81021F21914088432279133A02EBF7
:1059900082022168914008432968486311E0286821
:1059A000006B2179193901EB81021F219140884355
:1059B0002279193A02EB8202216891400843296852
:1059C000086320680A2810D228684069217801EB12
:1059D0004102072191408843227802EB4202A168EC
:1059E00091400843296848612CE02068142812D2AD
:1059F0002868006921780A3901EB410207219140AA
:105A0000884322780A3A02EB4202A1689140084397
:105A10002968086116E020681A2812D82868C0682A
:105A20002178143901EB4102072191408843227803
:105A3000143A02EB4202A168914008432968C86009
:105A400000E000BF2068102802D0206811281DD176
:105A50002048006800F40000C0B91E48006840F407
:105A600000001C490860206810280FD11A480068FF
:105A70001A49B0FBF1F000EB80004000009002E01A
:105A80000098401E009000980028F9D100BF002027
:105A9000A86400BF304626E7002401402E2E2F4484
:105AA0007269766572732F53544D33324C31787866
:105AB0005F48414C5F4472697665722F5372632F61
:105AC00073746D33326C3178785F68616C5F6164D8
:105AD000632E6300042701400C00002040420F00A9
